:100000000EC037C125C024C023C0E9C021C020C014
:100010001FC01EC01DC01CC01BC01AC019C01124A7
:100020001FBECFEDCDBF10E0A0E6B0E0E2EEF7E0FE
:1000300002C005900D92AE36B107D9F720E0AEE6CA
:10004000B0E001C01D92A338B207E1F71CD1C7C3CD
:10005000D7CF3FB7F8948091730090917400A0912E
:100060007500B091760022B708B601FE05C02F3F9B
:1000700019F00196A11DB11D3FBFBA2FA92F982FCE
:100080008827BC01CD01620F711D811D911D43E0C8
:10009000660F771F881F991F4A95D1F70895CF9251
:1000A000DF92EF92FF92CF93DF936B017C01D1DF60
:1000B000EB01CFDF6C1B7D0B683E7340A0F0C114D9
:1000C000D104E104F10439F4DF91CF91FF90EF9076
:1000D000DF90CF90089581E0C81AD108E108F108B7
:1000E000C851DC4FE6CFC114D104E104F10409F793
:1000F000EBCF2FB7F89460916F00709170008091F2
:100100007100909172002FBF089585B78D7F85BFD4
:1001100085B78E7F85BF379885B7806185BF85B7E6
:10012000877F85BF85B7806285BF8BB780648BBFB3
:1001300078948895F8948BB78F7B8BBF85B78F7D2C
:1001400085BF379A78940895CF92DF92EF92FF920D
:10015000CF936B017C01C42FCCDFC60ED71EE81EE7
:10016000F91EC7DF6C157D058E059F0568F4B29BEF
:100170000DC0B499F6CFC111F4CF82E0CF91FF90BA
:10018000EF90DF90CF90089580E0F8CF81E0F6CF38
:100190008FEF89BD88BD1092820080E29EE4A0E0CE
:1001A000B0E08093770090937800A0937900B093AB
:1001B0007A00089583EF89BD81E08093820060E436
:1001C00076E080E090E06BDFE3DF60E476E080E003
:1001D00090E065CF60EF70E080E090E060CF1F922C
:1001E0000F920FB60F9211242F933F938F939F93EB
:1001F000AF93BF9380916F0090917000A0917100B8
:10020000B091720030916E0026E0230F2D3768F117
:1002100029E8230F0396A11DB11D20936E00809342
:100220006F0090937000A0937100B0937200809162
:10023000730090917400A0917500B09176000196C2
:10024000A11DB11D8093730090937400A09375005D
:10025000B0937600BF91AF919F918F913F912F9175
:100260000F900FBE0F901F9018950296A11DB11D03
:10027000D4CF1F920F920FB60F9211240F900FBE82
:100280000F901F90189581B781BF78948AB58260CE
:100290008ABD8AB581608ABD83B7887F836083BF4A
:1002A000789489B7826089BF80B7807F80BF80B72C
:1002B000806880BF80B7806480BF8CB580648CBD4F
:1002C0008FEF8DBD80B7876080BF86B188778668E5
:1002D00086B9379A68EE73E080E090E0E0DEB4998A
:1002E0000AC0B39908C0B29906C080917D0091E020
:1002F000892780937D0083E087BB8FE188BB83EFF4
:100300008ABD82E083BF44DF0CE0D2E018E0809138
:1003100082008130A1F1B49932C0B39B30C0B29B4E
:100320002EC036DFE0916200F0E0ED59FF4F808192
:1003300089BD81E08093820080936100DADE609362
:100340007E0070937F00809380009093810042DF55
:10035000B49BFDCFCEDEAB01BC0180917E009091BD
:100360007F00A0918000B0918100805C904EAF4FE3
:10037000BF4F84179507A607B70708F409DF8091D8
:100380008200813059F4B49909C0B39B07C0B29B75
:1003900005C0FEDE1FDFB49BFECF1CDF8091820014
:1003A000823009F4B4C0B399B2C0B49BB0C0B29B60
:1003B000AEC010DF9EDE60937E0070937F0080935E
:1003C000800090938100FF24F394B399A0C091DE44
:1003D000AB01BC0180917E0090917F00A0918000D4
:1003E000B091810080529A4EAF4FBF4F841795074E
:1003F000A607B70708F069C0B39904C0B49902C052
:10040000B2991EC080918200823009F47DC0C0DEA6
:1004100080917D00882351F0CFEFE0916000F0E003
:10042000ED59FF4F80818C1708F45BC0E0916000AC
:10043000F0E0ED59FF4F808188BDD093820064C009
:1004400007B960E170E080E090E029DE369A3699E5
:10045000FECF84B195B1C1E0873821E0920750F416
:10046000C2E0853521E0920728F4C4E0893191404B
:1004700008F0C3E0E12C80916100823041F5E09109
:100480006000F0E0ED59FF4F908198BD80938200AD
:1004900041E068EE73E080E090E056DE8130A9F044
:1004A00077DE41E060ED77E080E090E04DDE813086
:1004B00061F0E394EC12DFCF41E060E177E280E0AD
:1004C00090E042DE813009F0BBCF84DE7ECFE09148
:1004D0006200F0E0ED59FF4F808189BDF09282000B
:1004E000D7CFC8BDC73910F4C15097CF6C2F70E07B
:1004F00090E080E040E028DE8823B1F3823008F409
:1005000095CF823009F444DED0936100DECF809134
:100510008200823031F4B39904C0B49B02C0B29916
:1005200037DE80918200882309F489C0B29987C0A0
:10053000B49B85C0B39B83C04DDE10927C00C1E0AC
:10054000B29977C0B49939C0809182008130B1F4FA
:1005500080916200893011F41093620080916200F2
:100560008F5F80936200E0916200F0E0ED59FF4FF1
:10057000808189BDC0938200C0937C0080918200FD
:100580008230B1F480916000893011F410936000E2
:10059000809160008F5F80936000E0916000F0E0E8
:1005A000ED59FF4F808188BDD0938200C0937C00BD
:1005B00060EA7FE080E090E072DDB399C1CF809186
:1005C00082008130B1F490916200911102C0809359
:1005D000620080916200815080936200E09162002D
:1005E000F0E0ED59FF4F808189BDC0938200C09338
:1005F0007C00809182008230B1F480916000811192
:1006000002C0C093600080916000815080936000C0
:10061000E0916000F0E0ED59FF4F808188BDD093FC
:100620008200C0937C0060EA7FE080E090E037DDEC
:1006300087CF80917C00811101C0AADDCBDD809144
:10064000820081116BC0B29969C0B49B67C0B39B33
:1006500065C09EDD4EDD60937E0070937F008093C9
:10066000800090938100C1E0B2991EC080917B0010
:1006700081111AC03EDDAB01BC0180917E009091DA
:100680007F00A0918000B09181008058914CAF4FC5
:10069000BF4F84179507A607B70720F48BDD8ADDC7
:1006A000C0937B0097DDE0CFB29902C093DDFCCF11
:1006B00080917B00813091F528DD60E273E080E07D
:1006C00090E0EDDC16DD60937E0070937F008093F8
:1006D000800090938100B2991DC080917B00813091
:1006E000C9F407DDAB01BC0180917E0090917F00D1
:1006F000A0918000B09181008058914CAF4FBF4FC6
:1007000084179507A607B70718F454DD10927B00ED
:1007100061DDE1CFB299CCCF5DDDFCCF809182006D
:1007200081115BC080917B00811157C0809177005F
:1007300090917800A0917900B0917A000197A10979
:10074000B1098093770090937800A0937900B093DB
:100750007A008091770090917800A0917900B09113
:100760007A00892B8A2B8B2BC1F581E080937B004B
:1007700080917B00813069F5C8DCBBDC60937E0032
:1007800070937F008093800090938100B299F0CFA6
:1007900080917B00813061F7ACDCAB01BC018091C2
:1007A0007E0090917F00A0918000B09181008058E0
:1007B000914CAF4FBF4F84179507A607B70738F482
:1007C00080917B00813019F4F5DC10927B0002DD12
:1007D000DDCFB29902C0FEDCFCCFFCDC98CDF894F2
:0207E000FFCF49
:0E07E200070104FEFDFCF9F3E9D7B575000030
:00000001FF
