:100000000EC011C325C024C027C322C021C020C0F8
:100010001FC01EC01DC01CC01BC01AC019C01124A7
:100020001FBECFEDCDBF10E0A0E6B0E0E4EDF7E0FD
:1000300002C005900D92AA38B107D9F720E0AAE8CE
:10004000B0E001C01D92AE39B207E1F7BDD3C0C325
:10005000D7CF6EE170E080E090E078C3E82FF0E069
:10006000E058FF4F808189BD81E08093940008951E
:10007000E82FF0E0E058FF4F808188BD82E0809358
:10008000940008958FEF89BD88BD1092940081EE91
:100090009AE4A0E0B0E080938E0090938F00A0934C
:1000A0009000B0939100089584E0D8DF68EC70E090
:1000B00080E090E04BD3E6DF68EC70E080E090E019
:1000C00045C3CF92DF92EF92FF920F931F93CF938E
:1000D000DF93EADF86B38C718C3111F0BADFFACF8F
:1000E000D1E0C5E080917C00823021F480917E00D7
:1000F000BFDF03C080917F00B1DFF8D260938A0038
:1001000070938B0080938C0090938D00EFD20091C0
:100110008A0010918B0020918C0030918D00E0912D
:100120007D00F0E0EE0FFF1FE259FF4F408151814B
:100130006A01EE24D7FCE094FE2CC00ED11EE21E14
:10014000F31E6C157D058E059F0520F486B38C711A
:100150008C31E1F297DFCAD260938A0070938B00F2
:1001600080938C0090938D00C1D200918A001091F1
:100170008B0020918C0030918D00E0917D00F0E0AB
:10018000EE0FFF1FE05AFF4F408151816A01EE24BC
:10019000D7FCE094FE2CC00ED11EE21EF31E6C159F
:1001A0007D058E059F0508F09DCF86B38C718C313F
:1001B000D9F24FDF86B38C718C3079F580917D0058
:1001C000811102C0D0937D0080917D008150809389
:1001D0007D0010E086B38C71843161F480917D00E4
:1001E000863011F4C0937D0080917D008F5F8093F5
:1001F0007D0010E059DF86B38C718C3111F029DF5E
:10020000FACF112309F46ECFDF91CF911F910F9197
:10021000FF90EF90DF90CF90089511E0DBCF85B78E
:100220008D7F85BF85B78E7F85BF379885B7806105
:1002300085BF85B7877F85BF85B7806285BF8BB750
:1002400080648BBF78948895F8948BB78F7B8BBF35
:1002500085B78F7D85BF379A7894089564EF71E0F4
:1002600080E090E073D283E087BB8FE188BB83EFAF
:100270008ABD82E083BF06CF0F931F93CF93DF9396
:1002800080919400813061F186B38C718C3041F59E
:10029000F9DE80917F00E2DE81E080937C0026D24F
:1002A00060938A0070938B0080938C0090938D00F4
:1002B000D0DE86B38C718C30D9F318D200918A00CD
:1002C00010918B0020918C0030918D0008511C4FB3
:1002D0002F4F3F4F061717072807390708F4D2DEBC
:1002E00080919400813059F486B38C718C3039F44C
:1002F000C9DEAFDE86B38C718C30E1F3AADE80916B
:100300009400823031F486B38C71883109F049C091
:1003100031C086B38C718431B1F79BDEE7D1609335
:100320008A0070938B0080938C0090938D00C2E0C4
:1003300086B38C70843039F7D9D100918A0010913E
:100340008B0020918C0030918D0004541D4F2F4F55
:100350003F4F061717072807390750F4B49902C012
:10036000B0DE06C08FDE80917E0082DEC0937C000E
:1003700070DEDECF80919400811167C012C086B319
:100380008C71883009F467C086B38C71803109F4B0
:1003900090C0B29BF4CF80919300811101C072DEB6
:1003A00058DE80919400882331F080919400882356
:1003B00009F441C045C086B38C718831B1F762DE63
:1003C00095D160938A0070938B0080938C009093FA
:1003D0008D00C1E086B38C71883129F48091920040
:1003E000882309F494C086B38C71883111F431DE0E
:1003F000FACF809192008130C1F611DF64E670E09F
:1004000080E090E0A3D172D160938A0070938B005A
:1004100080938C0090938D0086B38C71883129F481
:1004200080919200813009F48AC086B38C71883142
:1004300001F70FDEFACF80919200882309F496C06D
:10044000DF91CF911F910F9104CE03DE10929300A4
:10045000C1E0D8E09ECF90919400913081F49091CA
:100460007F00993011F480937F0080917F008F5F2F
:1004700080937F0080917F00F1DDC0939300809195
:100480009400823081F480917E00893011F4D09301
:100490007E0080917E008F5F80937E0080917E0041
:1004A000E7DDC093930064EF71E080E090E04ED10F
:1004B0006BCF80919400813081F490917F009111F5
:1004C00002C080937F0080917F00815080937F00E5
:1004D00080917F00C3DDC0939300809194008230AF
:1004E00081F480917E00811102C0C0937E008091D2
:1004F0007E00815080937E0080917E00B9DDC093A4
:10050000930064EF71E080E090E020D142CFEED024
:1005100000918A0010918B0020918C0030918D0009
:100520000053184F2F4F3F4F06171707280739075B
:1005300020F4BADDB9DDC09392008BDD4BCFD6D06D
:1005400000918A0010918B0020918C0030918D00D9
:100550000053184F2F4F3F4F06171707280739072B
:1005600018F4A2DD1092920074DD56CF80918E00B7
:1005700090918F00A0919000B09191000197A109F6
:10058000B10980938E0090938F00A0939000B09358
:10059000910080918E0090918F00A0919000B09179
:1005A0009100892B8A2B8B2B09F04ACF81E0809315
:1005B000920080919200813099F431DE97D060935F
:1005C0008A0070938B0080938C0090938D0086B38B
:1005D0008C71883171F780919200813051F707C09A
:1005E00086B38C71883109F02BCF33DDF9CF7ED003
:1005F00000918A0010918B0020918C0030918D0029
:100600000053184F2F4F3F4F06171707280739077A
:1006100020F480919200813011F01BDDD8CF44DDB1
:1006200010929200FACF1F920F920FB60F921124E0
:100630000F900FBE0F901F90189583B7887F83BFD0
:100640008AB58C7F81608ABD83B7877F83BF83B77C
:10065000887F836083BF08951F920F920FB60F9219
:1006600011242F933F938F939F93AF93BF938091C8
:10067000960090919700A0919800B09199003091C8
:10068000950026E0230F2D3730F029E8230F03963D
:10069000A11DB11D03C00296A11DB11D209395009F
:1006A0008093960090939700A0939800B093990040
:1006B00080919A0090919B00A0919C00B0919D0028
:1006C0000196A11DB11D80939A0090939B00A09369
:1006D0009C00B0939D00BF91AF919F918F913F91EE
:1006E0002F910F900FBE0F901F9018952FB7F89471
:1006F0006091960070919700809198009091990078
:100700002FBF08953FB7F89480919A0090919B0075
:10071000A0919C00B0919D002FB508B602FE05C0C7
:100720002F3F19F00196A11DB11D3FBF6627782FFD
:10073000892F9A2F620F711D811D911D43E0660F55
:10074000771F881F991F4A95D1F70895CF92DF929E
:10075000EF92FF92CF93DF936B017C01D3DFEB012C
:10076000C114D104E104F10471F0CCDF6C1B7D0BEA
:10077000683E7340A8F381E0C81AD108E108F10887
:10078000C851DC4FEDCFDF91CF91FF90EF90DF901C
:10079000CF900895789480B7806880BF80B78064D8
:1007A00080BF8CB580648CBD8FEF8DBD80B7807F9E
:1007B000876080BF89B7846089BF3FDF86B1887F4B
:1007C000866086B9379A0895E5DF48DD55DDFECFAE
:0407D000F894FFCFCB
:1007D4005E00BC007701EE02DC05B80B581B1F005D
:1007E4003F007D00FA00F401E803E8030103070475
:0A07F400FEFDFCF9F3E9D7B575002E
:00000001FF
