:100000000EC0E3C225C024C0F9C222C021C020C056
:100010001FC01EC01DC01CC01BC01AC019C01124A7
:100020001FBECFEDCDBF10E0A0E6B0E0E8E7F7E0FF
:1000300002C005900D92AE38B107D9F720E0AEE8C6
:10004000B0E001C01D92A23AB207E1F78FD392C38C
:10005000D7CF6EE170E080E090E04AC3E82FF0E097
:10006000EC57FF4F808189BD81E08093980008950F
:10007000E82FF0E0EC57FF4F808188BD82E080934D
:10008000980008958FEF89BD88BD1092980081EE89
:100090009AE4A0E0B0E08093920090939300A09344
:1000A0009400B0939500089584E0D8DF68EC70E088
:1000B00080E090E01DD3E6DF68EC70E080E090E047
:1000C00017C3CF92DF92EF92FF920F931F93CF93BC
:1000D000DF93EADF86B38C718C3111F0BADFFACF8F
:1000E000D1E0C6E080918000823021F480918200CE
:1000F000BFDF03C080918300B1DFCAD260938E005E
:1001000070938F008093900090939100C1D20091E2
:100110008E0010918F002091900030919100E0911D
:100120008100F0E0EE0FFF1FE059FF4F4081518149
:100130006A01EE24D7FCE094FE2CC00ED11EE21E14
:10014000F31E6C157D058E059F0520F486B38C711A
:100150008C31E1F297DF9CD260938E0070938F0018
:10016000809390009093910093D200918E00109113
:100170008F002091900030919100E0918100F0E09B
:10018000EE0FFF1FE05AFF4F408151816A01EE24BC
:10019000D7FCE094FE2CC00ED11EE21EF31E6C159F
:1001A0007D058E059F0508F09DCF86B38C718C313F
:1001B000D9F24FDF86B38C718C3079F58091810054
:1001C000811102C0D0938100809181008150809381
:1001D000810010E086B38C71843161F480918100DC
:1001E000873011F4C0938100809181008F5F8093EC
:1001F000810010E059DF86B38C718C3111F029DF5A
:10020000FACF112309F46ECFDF91CF911F910F9197
:10021000FF90EF90DF90CF90089511E0DBCF85B78E
:100220008D7F85BF85B78E7F85BF379885B7806105
:1002300085BF85B7877F85BF85B7806285BF8BB750
:1002400080648BBF78948895F8948BB78F7B8BBF35
:1002500085B78F7D85BF379A7894089564EF71E0F4
:1002600080E090E045D283E087BB8FE188BB83EFDD
:100270008ABD82E083BF06CF0F931F93CF93DF9396
:1002800080919800813029F086B38C718C3009F40C
:10029000A6C080919800823031F486B38C71883189
:1002A00009F049C031C086B38C718431B1F7D1DE19
:1002B000EFD160938E0070938F00809390009093A5
:1002C0009100C2E086B38C70843039F7E1D100919F
:1002D0008E0010918F002091900030919100045475
:1002E0001D4F2F4F3F4F061717072807390750F4A8
:1002F000B49902C0E6DE06C0C5DE80918200B8DE99
:10030000C0938000A6DEDECF8091980081116FC07F
:1003100012C086B38C71883009F46FC086B38C71BB
:10032000803109F498C0B29BF4CF8091970081117D
:1003300001C0A8DE8EDE80919800882331F0809184
:100340009800882309F441C045C086B38C71883178
:10035000B1F798DE9DD160938E0070938F008093EB
:10036000900090939100C1E086B38C71883129F49C
:1003700080919600882309F49CC086B38C718831E3
:1003800011F467DEFACF809196008130C1F647DF25
:1003900064E670E080E090E0ABD17AD160938E00AB
:1003A00070938F00809390009093910086B38C712E
:1003B000883129F480919600813009F492C086B387
:1003C0008C71883101F745DEFACF80919600882341
:1003D00009F49EC0DF91CF911F910F913ACE52DE6A
:1003E000809183003BDE81E08093800052CF31DE3C
:1003F00010929700C1E0D8E096CF9091980091308C
:1004000081F490918300993011F48093830080915E
:1004100083008F5F80938300809183001FDEC093F1
:10042000970080919800823081F480918200893019
:1004300011F4D0938200809182008F5F80938200BC
:100440008091820015DEC093970064EF71E080E038
:1004500090E04ED163CF80919800813081F49091EB
:100460008300911102C080938300809183008150AA
:100470008093830080918300F1DDC0939700809189
:100480009800823081F480918200811102C0C09373
:10049000820080918200815080938200809182004E
:1004A000E7DDC093970064EF71E080E090E020D139
:1004B0003ACFEED000918E0010918F0020919000E5
:1004C000309191000053184F2F4F3F4F06171707D9
:1004D0002807390720F4E8DDE7DDC0939600B9DD91
:1004E00043CFD6D000918E0010918F0020919000C4
:1004F000309191000053184F2F4F3F4F06171707A9
:100500002807390718F4D0DD10929600A2DD4ECFEF
:100510008091920090919300A0919400B0919500E9
:100520000197A109B1098093920090939300A09341
:100530009400B09395008091920090919300A091C7
:100540009400B0919500892B8A2B8B2B09F042CF18
:1005500081E08093960080919600813099F45FDE6F
:1005600097D060938E0070938F008093900090934B
:10057000910086B38C71883171F78091960081303B
:1005800051F707C086B38C71883109F023CF61DD44
:10059000F9CF7ED000918E0010918F0020919000B5
:1005A000309191000053184F2F4F3F4F06171707F8
:1005B0002807390720F480919600813011F049DD39
:1005C000D8CF72DD10929600FACF1F920F920FB61D
:1005D0000F9211240F900FBE0F901F90189583B7A4
:1005E000887F83BF8AB58C7F81608ABD83B7877F10
:1005F00083BF83B7887F836083BF08951F920F9264
:100600000FB60F9211242F933F938F939F93AF9325
:10061000BF9380919A0090919B00A0919C00B09113
:100620009D003091990026E0230F2D3730F029E806
:10063000230F0396A11DB11D03C00296A11DB11D7C
:100640002093990080939A0090939B00A0939C0024
:10065000B0939D0080919E0090919F00A091A0007A
:10066000B091A1000196A11DB11D80939E009093B1
:100670009F00A093A000B093A100BF91AF919F9164
:100680008F913F912F910F900FBE0F901F90189553
:100690002FB7F89460919A0070919B0080919C0014
:1006A00090919D002FBF08953FB7F89480919E00D0
:1006B00090919F00A091A000B091A1002FB508B625
:1006C00002FE05C02F3F19F00196A11DB11D3FBFCD
:1006D0006627782F892F9A2F620F711D811D911D1A
:1006E00043E0660F771F881F991F4A95D1F7089539
:1006F000CF92DF92EF92FF92CF93DF936B017C0159
:10070000D3DFEB01C114D104E104F10471F0CCDFBB
:100710006C1B7D0B683E7340A8F381E0C81AD108BA
:10072000E108F108C851DC4FEDCFDF91CF91FF9088
:10073000EF90DF90CF900895789480B7806880BF65
:1007400080B7806480BF8CB580648CBD8FEF8DBD19
:1007500080B7807F876080BF89B7846089BF3FDFB3
:1007600086B1887F866086B9379A0895E5DF76DDA1
:0807700083DDFECFF894FFCFFA
:100778005E00BC007701EE02DC05B80B581B983A06
:100788001F003F007D00FA00F401E803E803E803D6
:0E07980001030704FEFDFCF9F3E9D7B5750077
:00000001FF
